{
  "contractName": "ProductContract",
  "abi": [
    {
      "anonymous": false,
      "inputs": [
        {
          "indexed": false,
          "internalType": "uint256",
          "name": "id",
          "type": "uint256"
        },
        {
          "indexed": false,
          "internalType": "string",
          "name": "name",
          "type": "string"
        },
        {
          "indexed": false,
          "internalType": "uint256",
          "name": "createdAt",
          "type": "uint256"
        }
      ],
      "name": "ProductAdded",
      "type": "event"
    },
    {
      "inputs": [],
      "name": "productCount",
      "outputs": [
        {
          "internalType": "uint256",
          "name": "",
          "type": "uint256"
        }
      ],
      "stateMutability": "view",
      "type": "function",
      "constant": true
    },
    {
      "inputs": [
        {
          "internalType": "uint256",
          "name": "",
          "type": "uint256"
        }
      ],
      "name": "products",
      "outputs": [
        {
          "internalType": "string",
          "name": "name",
          "type": "string"
        },
        {
          "internalType": "string",
          "name": "description",
          "type": "string"
        },
        {
          "internalType": "uint256",
          "name": "price",
          "type": "uint256"
        },
        {
          "internalType": "uint256",
          "name": "stock",
          "type": "uint256"
        },
        {
          "internalType": "string",
          "name": "category",
          "type": "string"
        },
        {
          "internalType": "uint256",
          "name": "createdAt",
          "type": "uint256"
        }
      ],
      "stateMutability": "view",
      "type": "function",
      "constant": true
    },
    {
      "inputs": [
        {
          "internalType": "string",
          "name": "_name",
          "type": "string"
        },
        {
          "internalType": "string",
          "name": "_description",
          "type": "string"
        },
        {
          "internalType": "uint256",
          "name": "_price",
          "type": "uint256"
        },
        {
          "internalType": "uint256",
          "name": "_stock",
          "type": "uint256"
        },
        {
          "internalType": "string",
          "name": "_category",
          "type": "string"
        },
        {
          "internalType": "string[]",
          "name": "_tags",
          "type": "string[]"
        },
        {
          "internalType": "uint256",
          "name": "_createdAt",
          "type": "uint256"
        }
      ],
      "name": "addProduct",
      "outputs": [],
      "stateMutability": "nonpayable",
      "type": "function"
    }
  ],
  "bytecode": "0x608060405234801561001057600080fd5b50610d2b806100206000396000f3fe608060405234801561001057600080fd5b50600436106100415760003560e01c80632be0145a146100465780637acc0b2014610062578063e0f6ef8714610097575b600080fd5b610060600480360381019061005b9190610704565b6100b5565b005b61007c60048036038101906100779190610816565b6101da565b60405161008e969594939291906108d1565b60405180910390f35b61009f6103ae565b6040516100ac9190610947565b60405180910390f35b600160008154809291906100c890610991565b91905055506040518060e0016040528088815260200187815260200186815260200185815260200184815260200183815260200182815250600080600154815260200190815260200160002060008201518160000190816101299190610be5565b50602082015181600101908161013f9190610be5565b50604082015181600201556060820151816003015560808201518160040190816101699190610be5565b5060a08201518160050190805190602001906101869291906103b4565b5060c082015181600601559050507fcca07c742c5274e8b72111ba69566aa4442450bfc50bd897ea38d0170d1accfc60015488836040516101c993929190610cb7565b60405180910390a150505050505050565b60006020528060005260406000206000915090508060000180546101fd90610a08565b80601f016020809104026020016040519081016040528092919081815260200182805461022990610a08565b80156102765780601f1061024b57610100808354040283529160200191610276565b820191906000526020600020905b81548152906001019060200180831161025957829003601f168201915b50505050509080600101805461028b90610a08565b80601f01602080910402602001604051908101604052809291908181526020018280546102b790610a08565b80156103045780601f106102d957610100808354040283529160200191610304565b820191906000526020600020905b8154815290600101906020018083116102e757829003601f168201915b50505050509080600201549080600301549080600401805461032590610a08565b80601f016020809104026020016040519081016040528092919081815260200182805461035190610a08565b801561039e5780601f106103735761010080835404028352916020019161039e565b820191906000526020600020905b81548152906001019060200180831161038157829003601f168201915b5050505050908060060154905086565b60015481565b8280548282559060005260206000209081019282156103fc579160200282015b828111156103fb5782518290816103eb9190610be5565b50916020019190600101906103d4565b5b509050610409919061040d565b5090565b5b8082111561042d57600081816104249190610431565b5060010161040e565b5090565b50805461043d90610a08565b6000825580601f1061044f575061046e565b601f01602090049060005260206000209081019061046d9190610471565b5b50565b5b8082111561048a576000816000905550600101610472565b5090565b6000604051905090565b600080fd5b600080fd5b600080fd5b600080fd5b6000601f19601f8301169050919050565b7f4e487b7100000000000000000000000000000000000000000000000000000000600052604160045260246000fd5b6104f5826104ac565b810181811067ffffffffffffffff82111715610514576105136104bd565b5b80604052505050565b600061052761048e565b905061053382826104ec565b919050565b600067ffffffffffffffff821115610553576105526104bd565b5b61055c826104ac565b9050602081019050919050565b82818337600083830152505050565b600061058b61058684610538565b61051d565b9050828152602081018484840111156105a7576105a66104a7565b5b6105b2848285610569565b509392505050565b600082601f8301126105cf576105ce6104a2565b5b81356105df848260208601610578565b91505092915050565b6000819050919050565b6105fb816105e8565b811461060657600080fd5b50565b600081359050610618816105f2565b92915050565b600067ffffffffffffffff821115610639576106386104bd565b5b602082029050602081019050919050565b600080fd5b600061066261065d8461061e565b61051d565b905080838252602082019050602084028301858111156106855761068461064a565b5b835b818110156106cc57803567ffffffffffffffff8111156106aa576106a96104a2565b5b8086016106b789826105ba565b85526020850194505050602081019050610687565b5050509392505050565b600082601f8301126106eb576106ea6104a2565b5b81356106fb84826020860161064f565b91505092915050565b600080600080600080600060e0888a03121561072357610722610498565b5b600088013567ffffffffffffffff8111156107415761074061049d565b5b61074d8a828b016105ba565b975050602088013567ffffffffffffffff81111561076e5761076d61049d565b5b61077a8a828b016105ba565b965050604061078b8a828b01610609565b955050606061079c8a828b01610609565b945050608088013567ffffffffffffffff8111156107bd576107bc61049d565b5b6107c98a828b016105ba565b93505060a088013567ffffffffffffffff8111156107ea576107e961049d565b5b6107f68a828b016106d6565b92505060c06108078a828b01610609565b91505092959891949750929550565b60006020828403121561082c5761082b610498565b5b600061083a84828501610609565b91505092915050565b600081519050919050565b600082825260208201905092915050565b60005b8381101561087d578082015181840152602081019050610862565b60008484015250505050565b600061089482610843565b61089e818561084e565b93506108ae81856020860161085f565b6108b7816104ac565b840191505092915050565b6108cb816105e8565b82525050565b600060c08201905081810360008301526108eb8189610889565b905081810360208301526108ff8188610889565b905061090e60408301876108c2565b61091b60608301866108c2565b818103608083015261092d8185610889565b905061093c60a08301846108c2565b979650505050505050565b600060208201905061095c60008301846108c2565b92915050565b7f4e487b7100000000000000000000000000000000000000000000000000000000600052601160045260246000fd5b600061099c826105e8565b91507fffffffffffffffffffffffffffffffffffffffffffffffffffffffffffffffff82036109ce576109cd610962565b5b600182019050919050565b7f4e487b7100000000000000000000000000000000000000000000000000000000600052602260045260246000fd5b60006002820490506001821680610a2057607f821691505b602082108103610a3357610a326109d9565b5b50919050565b60008190508160005260206000209050919050565b60006020601f8301049050919050565b600082821b905092915050565b600060088302610a9b7fffffffffffffffffffffffffffffffffffffffffffffffffffffffffffffffff82610a5e565b610aa58683610a5e565b95508019841693508086168417925050509392505050565b6000819050919050565b6000610ae2610add610ad8846105e8565b610abd565b6105e8565b9050919050565b6000819050919050565b610afc83610ac7565b610b10610b0882610ae9565b848454610a6b565b825550505050565b600090565b610b25610b18565b610b30818484610af3565b505050565b5b81811015610b5457610b49600082610b1d565b600181019050610b36565b5050565b601f821115610b9957610b6a81610a39565b610b7384610a4e565b81016020851015610b82578190505b610b96610b8e85610a4e565b830182610b35565b50505b505050565b600082821c905092915050565b6000610bbc60001984600802610b9e565b1980831691505092915050565b6000610bd58383610bab565b9150826002028217905092915050565b610bee82610843565b67ffffffffffffffff811115610c0757610c066104bd565b5b610c118254610a08565b610c1c828285610b58565b600060209050601f831160018114610c4f5760008415610c3d578287015190505b610c478582610bc9565b865550610caf565b601f198416610c5d86610a39565b60005b82811015610c8557848901518255600182019150602085019450602081019050610c60565b86831015610ca25784890151610c9e601f891682610bab565b8355505b6001600288020188555050505b505050505050565b6000606082019050610ccc60008301866108c2565b8181036020830152610cde8185610889565b9050610ced60408301846108c2565b94935050505056fea2646970667358221220216d8cb4790ae1edaebeef91f7ab93a62f59350573e10acbc4efd659c65f59ef64736f6c63430008130033",
  "immutableReferences": {},
  "source": "// SPDX-License-Identifier: MIT\npragma solidity ^0.8.0;\n\ncontract ProductContract {\n  struct Product {\n    string name;\n    string description;\n    uint256 price;\n    uint256 stock;\n    string category;\n    string[] tags;\n    uint256 createdAt;\n  }\n\n  mapping(uint256 => Product) public products;\n  uint256 public productCount;\n\n  event ProductAdded(uint256 id, string name, uint256 createdAt);\n\n  function addProduct(\n    string memory _name,\n    string memory _description,\n    uint256 _price,\n    uint256 _stock,\n    string memory _category,\n    string[] memory _tags,\n    uint256 _createdAt\n  ) public {\n    productCount++;\n    products[productCount] = Product(\n      _name,\n      _description,\n      _price,\n      _stock,\n      _category,\n      _tags,\n      _createdAt\n    );\n    emit ProductAdded(productCount, _name, _createdAt);\n  }\n}\n",
  "sourcePath": "/Users/michaelqiu/Documents/workspace/decentralizedtradedesk/truffle/contracts/ProductManagement.sol",
  "compiler": {
    "name": "solc",
    "version": "0.8.19+commit.7dd6d404.Emscripten.clang"
  },
  "schemaVersion": "3.4.16",
  "updatedAt": "2024-07-06T03:42:23.846Z",
  "networkType": "ethereum",
  "devdoc": {
    "kind": "dev",
    "methods": {},
    "version": 1
  },
  "userdoc": {
    "kind": "user",
    "methods": {},
    "version": 1
  }
}