{
  "contractName": "ProductManagement",
  "abi": [
    {
      "inputs": [],
      "name": "nextProductId",
      "outputs": [
        {
          "internalType": "uint256",
          "name": "",
          "type": "uint256"
        }
      ],
      "stateMutability": "view",
      "type": "function",
      "constant": true
    },
    {
      "inputs": [
        {
          "internalType": "uint256",
          "name": "",
          "type": "uint256"
        }
      ],
      "name": "products",
      "outputs": [
        {
          "internalType": "uint256",
          "name": "id",
          "type": "uint256"
        },
        {
          "internalType": "string",
          "name": "name",
          "type": "string"
        },
        {
          "internalType": "string",
          "name": "description",
          "type": "string"
        },
        {
          "internalType": "uint256",
          "name": "price",
          "type": "uint256"
        },
        {
          "internalType": "uint256",
          "name": "stock",
          "type": "uint256"
        },
        {
          "internalType": "string",
          "name": "category",
          "type": "string"
        }
      ],
      "stateMutability": "view",
      "type": "function",
      "constant": true
    },
    {
      "inputs": [
        {
          "internalType": "string",
          "name": "name",
          "type": "string"
        },
        {
          "internalType": "string",
          "name": "description",
          "type": "string"
        },
        {
          "internalType": "uint256",
          "name": "price",
          "type": "uint256"
        },
        {
          "internalType": "uint256",
          "name": "stock",
          "type": "uint256"
        },
        {
          "internalType": "string",
          "name": "category",
          "type": "string"
        },
        {
          "internalType": "string[]",
          "name": "tags",
          "type": "string[]"
        }
      ],
      "name": "addProduct",
      "outputs": [],
      "stateMutability": "nonpayable",
      "type": "function"
    },
    {
      "inputs": [
        {
          "internalType": "uint256",
          "name": "productId",
          "type": "uint256"
        }
      ],
      "name": "getProduct",
      "outputs": [
        {
          "components": [
            {
              "internalType": "uint256",
              "name": "id",
              "type": "uint256"
            },
            {
              "internalType": "string",
              "name": "name",
              "type": "string"
            },
            {
              "internalType": "string",
              "name": "description",
              "type": "string"
            },
            {
              "internalType": "uint256",
              "name": "price",
              "type": "uint256"
            },
            {
              "internalType": "uint256",
              "name": "stock",
              "type": "uint256"
            },
            {
              "internalType": "string",
              "name": "category",
              "type": "string"
            },
            {
              "internalType": "string[]",
              "name": "tags",
              "type": "string[]"
            }
          ],
          "internalType": "struct ProductManagement.Product",
          "name": "",
          "type": "tuple"
        }
      ],
      "stateMutability": "view",
      "type": "function",
      "constant": true
    }
  ],
  "bytecode": "0x6080604052600060015534801561001557600080fd5b506112f3806100256000396000f3fe608060405234801561001057600080fd5b506004361061004c5760003560e01c8063231641c8146100515780634de91a631461006d5780637acc0b201461008b578063b9db15b4146100c0575b600080fd5b61006b60048036038101906100669190610a96565b6100f0565b005b6100756101ef565b6040516100829190610ba2565b60405180910390f35b6100a560048036038101906100a09190610bbd565b6101f5565b6040516100b796959493929190610c69565b60405180910390f35b6100da60048036038101906100d59190610bbd565b6103d9565b6040516100e79190610eab565b60405180910390f35b60006040518060e00160405280600154815260200188815260200187815260200186815260200185815260200184815260200183815250908060018154018082558091505060019003906000526020600020906007020160009091909190915060008201518160000155602082015181600101908161016f91906110d9565b50604082015181600201908161018591906110d9565b50606082015181600301556080820151816004015560a08201518160050190816101af91906110d9565b5060c08201518160060190805190602001906101cc929190610709565b505050600160008154809291906101e2906111da565b9190505550505050505050565b60015481565b6000818154811061020557600080fd5b906000526020600020906007020160009150905080600001549080600101805461022e90610efc565b80601f016020809104026020016040519081016040528092919081815260200182805461025a90610efc565b80156102a75780601f1061027c576101008083540402835291602001916102a7565b820191906000526020600020905b81548152906001019060200180831161028a57829003601f168201915b5050505050908060020180546102bc90610efc565b80601f01602080910402602001604051908101604052809291908181526020018280546102e890610efc565b80156103355780601f1061030a57610100808354040283529160200191610335565b820191906000526020600020905b81548152906001019060200180831161031857829003601f168201915b50505050509080600301549080600401549080600501805461035690610efc565b80601f016020809104026020016040519081016040528092919081815260200182805461038290610efc565b80156103cf5780601f106103a4576101008083540402835291602001916103cf565b820191906000526020600020905b8154815290600101906020018083116103b257829003601f168201915b5050505050905086565b6103e1610762565b6000805490508210610428576040517f08c379a000000000000000000000000000000000000000000000000000000000815260040161041f9061126e565b60405180910390fd5b6000828154811061043c5761043b61128e565b5b90600052602060002090600702016040518060e00160405290816000820154815260200160018201805461046f90610efc565b80601f016020809104026020016040519081016040528092919081815260200182805461049b90610efc565b80156104e85780601f106104bd576101008083540402835291602001916104e8565b820191906000526020600020905b8154815290600101906020018083116104cb57829003601f168201915b5050505050815260200160028201805461050190610efc565b80601f016020809104026020016040519081016040528092919081815260200182805461052d90610efc565b801561057a5780601f1061054f5761010080835404028352916020019161057a565b820191906000526020600020905b81548152906001019060200180831161055d57829003601f168201915b5050505050815260200160038201548152602001600482015481526020016005820180546105a790610efc565b80601f01602080910402602001604051908101604052809291908181526020018280546105d390610efc565b80156106205780601f106105f557610100808354040283529160200191610620565b820191906000526020600020905b81548152906001019060200180831161060357829003601f168201915b5050505050815260200160068201805480602002602001604051908101604052809291908181526020016000905b828210156106fa57838290600052602060002001805461066d90610efc565b80601f016020809104026020016040519081016040528092919081815260200182805461069990610efc565b80156106e65780601f106106bb576101008083540402835291602001916106e6565b820191906000526020600020905b8154815290600101906020018083116106c957829003601f168201915b50505050508152602001906001019061064e565b50505050815250509050919050565b828054828255906000526020600020908101928215610751579160200282015b8281111561075057825182908161074091906110d9565b5091602001919060010190610729565b5b50905061075e919061079f565b5090565b6040518060e00160405280600081526020016060815260200160608152602001600081526020016000815260200160608152602001606081525090565b5b808211156107bf57600081816107b691906107c3565b506001016107a0565b5090565b5080546107cf90610efc565b6000825580601f106107e15750610800565b601f0160209004906000526020600020908101906107ff9190610803565b5b50565b5b8082111561081c576000816000905550600101610804565b5090565b6000604051905090565b600080fd5b600080fd5b600080fd5b600080fd5b6000601f19601f8301169050919050565b7f4e487b7100000000000000000000000000000000000000000000000000000000600052604160045260246000fd5b6108878261083e565b810181811067ffffffffffffffff821117156108a6576108a561084f565b5b80604052505050565b60006108b9610820565b90506108c5828261087e565b919050565b600067ffffffffffffffff8211156108e5576108e461084f565b5b6108ee8261083e565b9050602081019050919050565b82818337600083830152505050565b600061091d610918846108ca565b6108af565b90508281526020810184848401111561093957610938610839565b5b6109448482856108fb565b509392505050565b600082601f83011261096157610960610834565b5b813561097184826020860161090a565b91505092915050565b6000819050919050565b61098d8161097a565b811461099857600080fd5b50565b6000813590506109aa81610984565b92915050565b600067ffffffffffffffff8211156109cb576109ca61084f565b5b602082029050602081019050919050565b600080fd5b60006109f46109ef846109b0565b6108af565b90508083825260208201905060208402830185811115610a1757610a166109dc565b5b835b81811015610a5e57803567ffffffffffffffff811115610a3c57610a3b610834565b5b808601610a49898261094c565b85526020850194505050602081019050610a19565b5050509392505050565b600082601f830112610a7d57610a7c610834565b5b8135610a8d8482602086016109e1565b91505092915050565b60008060008060008060c08789031215610ab357610ab261082a565b5b600087013567ffffffffffffffff811115610ad157610ad061082f565b5b610add89828a0161094c565b965050602087013567ffffffffffffffff811115610afe57610afd61082f565b5b610b0a89828a0161094c565b9550506040610b1b89828a0161099b565b9450506060610b2c89828a0161099b565b935050608087013567ffffffffffffffff811115610b4d57610b4c61082f565b5b610b5989828a0161094c565b92505060a087013567ffffffffffffffff811115610b7a57610b7961082f565b5b610b8689828a01610a68565b9150509295509295509295565b610b9c8161097a565b82525050565b6000602082019050610bb76000830184610b93565b92915050565b600060208284031215610bd357610bd261082a565b5b6000610be18482850161099b565b91505092915050565b600081519050919050565b600082825260208201905092915050565b60005b83811015610c24578082015181840152602081019050610c09565b60008484015250505050565b6000610c3b82610bea565b610c458185610bf5565b9350610c55818560208601610c06565b610c5e8161083e565b840191505092915050565b600060c082019050610c7e6000830189610b93565b8181036020830152610c908188610c30565b90508181036040830152610ca48187610c30565b9050610cb36060830186610b93565b610cc06080830185610b93565b81810360a0830152610cd28184610c30565b9050979650505050505050565b610ce88161097a565b82525050565b600082825260208201905092915050565b6000610d0a82610bea565b610d148185610cee565b9350610d24818560208601610c06565b610d2d8161083e565b840191505092915050565b600081519050919050565b600082825260208201905092915050565b6000819050602082019050919050565b6000610d708383610cff565b905092915050565b6000602082019050919050565b6000610d9082610d38565b610d9a8185610d43565b935083602082028501610dac85610d54565b8060005b85811015610de85784840389528151610dc98582610d64565b9450610dd483610d78565b925060208a01995050600181019050610db0565b50829750879550505050505092915050565b600060e083016000830151610e126000860182610cdf565b5060208301518482036020860152610e2a8282610cff565b91505060408301518482036040860152610e448282610cff565b9150506060830151610e596060860182610cdf565b506080830151610e6c6080860182610cdf565b5060a083015184820360a0860152610e848282610cff565b91505060c083015184820360c0860152610e9e8282610d85565b9150508091505092915050565b60006020820190508181036000830152610ec58184610dfa565b905092915050565b7f4e487b7100000000000000000000000000000000000000000000000000000000600052602260045260246000fd5b60006002820490506001821680610f1457607f821691505b602082108103610f2757610f26610ecd565b5b50919050565b60008190508160005260206000209050919050565b60006020601f8301049050919050565b600082821b905092915050565b600060088302610f8f7fffffffffffffffffffffffffffffffffffffffffffffffffffffffffffffffff82610f52565b610f998683610f52565b95508019841693508086168417925050509392505050565b6000819050919050565b6000610fd6610fd1610fcc8461097a565b610fb1565b61097a565b9050919050565b6000819050919050565b610ff083610fbb565b611004610ffc82610fdd565b848454610f5f565b825550505050565b600090565b61101961100c565b611024818484610fe7565b505050565b5b818110156110485761103d600082611011565b60018101905061102a565b5050565b601f82111561108d5761105e81610f2d565b61106784610f42565b81016020851015611076578190505b61108a61108285610f42565b830182611029565b50505b505050565b600082821c905092915050565b60006110b060001984600802611092565b1980831691505092915050565b60006110c9838361109f565b9150826002028217905092915050565b6110e282610bea565b67ffffffffffffffff8111156110fb576110fa61084f565b5b6111058254610efc565b61111082828561104c565b600060209050601f8311600181146111435760008415611131578287015190505b61113b85826110bd565b8655506111a3565b601f19841661115186610f2d565b60005b8281101561117957848901518255600182019150602085019450602081019050611154565b868310156111965784890151611192601f89168261109f565b8355505b6001600288020188555050505b505050505050565b7f4e487b7100000000000000000000000000000000000000000000000000000000600052601160045260246000fd5b60006111e58261097a565b91507fffffffffffffffffffffffffffffffffffffffffffffffffffffffffffffffff8203611217576112166111ab565b5b600182019050919050565b7f50726f6475637420646f6573206e6f742065786973742e000000000000000000600082015250565b6000611258601783610bf5565b915061126382611222565b602082019050919050565b600060208201905081810360008301526112878161124b565b9050919050565b7f4e487b7100000000000000000000000000000000000000000000000000000000600052603260045260246000fdfea26469706673582212205fa4ec4da421ddb5e89e54ff392f982e19d946295f1fe9e27e38f341688824e864736f6c63430008130033",
  "immutableReferences": {},
  "source": "// SPDX-License-Identifier: MIT\npragma solidity ^0.8.0;\n\ncontract ProductManagement {\n  struct Product {\n    uint id;\n    string name;\n    string description;\n    uint price; // wei\n    uint stock;\n    string category;\n    string[] tags;\n  }\n\n  Product[] public products;\n  uint public nextProductId = 0;\n\n  function addProduct(\n    string memory name,\n    string memory description,\n    uint price,\n    uint stock,\n    string memory category,\n    string[] memory tags\n  ) public {\n    products.push(\n      Product(nextProductId, name, description, price, stock, category, tags)\n    );\n    nextProductId++;\n  }\n\n  function getProduct(uint productId) public view returns (Product memory) {\n    require(productId < products.length, 'Product does not exist.');\n    return products[productId];\n  }\n}\n",
  "sourcePath": "/Users/michaelqiu/Documents/workspace/decentralizedtradedesk/truffle/contracts/ProductManagement.sol",
  "compiler": {
    "name": "solc",
    "version": "0.8.19+commit.7dd6d404.Emscripten.clang"
  },
  "schemaVersion": "3.4.16",
  "updatedAt": "2024-07-05T10:02:12.877Z",
  "networkType": "ethereum",
  "devdoc": {
    "kind": "dev",
    "methods": {},
    "version": 1
  },
  "userdoc": {
    "kind": "user",
    "methods": {},
    "version": 1
  }
}