{
  "contractName": "UserLogin",
  "abi": [
    {
      "inputs": [
        {
          "internalType": "address",
          "name": "",
          "type": "address"
        }
      ],
      "name": "users",
      "outputs": [
        {
          "internalType": "bool",
          "name": "",
          "type": "bool"
        }
      ],
      "stateMutability": "view",
      "type": "function",
      "constant": true
    },
    {
      "inputs": [],
      "name": "register",
      "outputs": [],
      "stateMutability": "nonpayable",
      "type": "function"
    },
    {
      "inputs": [
        {
          "internalType": "address",
          "name": "user",
          "type": "address"
        }
      ],
      "name": "isValidUser",
      "outputs": [
        {
          "internalType": "bool",
          "name": "",
          "type": "bool"
        }
      ],
      "stateMutability": "view",
      "type": "function",
      "constant": true
    }
  ],
  "bytecode": "0x608060405234801561001057600080fd5b5061027a806100206000396000f3fe608060405234801561001057600080fd5b50600436106100415760003560e01c80631aa3a00814610046578063a87430ba14610050578063f3c95c6014610080575b600080fd5b61004e6100b0565b005b61006a600480360381019061006591906101e1565b610109565b6040516100779190610229565b60405180910390f35b61009a600480360381019061009591906101e1565b610129565b6040516100a79190610229565b60405180910390f35b60016000803373ffffffffffffffffffffffffffffffffffffffff1673ffffffffffffffffffffffffffffffffffffffff16815260200190815260200160002060006101000a81548160ff021916908315150217905550565b60006020528060005260406000206000915054906101000a900460ff1681565b60008060008373ffffffffffffffffffffffffffffffffffffffff1673ffffffffffffffffffffffffffffffffffffffff16815260200190815260200160002060009054906101000a900460ff169050919050565b600080fd5b600073ffffffffffffffffffffffffffffffffffffffff82169050919050565b60006101ae82610183565b9050919050565b6101be816101a3565b81146101c957600080fd5b50565b6000813590506101db816101b5565b92915050565b6000602082840312156101f7576101f661017e565b5b6000610205848285016101cc565b91505092915050565b60008115159050919050565b6102238161020e565b82525050565b600060208201905061023e600083018461021a565b9291505056fea264697066735822122040335e655e1695d6869a707ba3a1058b74b13aa6964b4e8470d0b453164c7c0a64736f6c63430008130033",
  "immutableReferences": {},
  "source": "// SPDX-License-Identifier: UNLICENSED\n// contracts/UserLogin.sol\n\npragma solidity ^0.8.19;\n\ncontract UserLogin {\n  mapping(address => bool) public users;\n\n  function register() public {\n    users[msg.sender] = true;\n  }\n\n  function isValidUser(address user) public view returns (bool) {\n    return users[user];\n  }\n}\n",
  "sourcePath": "/Users/michaelqiu/Documents/workspace/decentralizedtradedesk/truffle/contracts/UserLogin.sol",
  "compiler": {
    "name": "solc",
    "version": "0.8.19+commit.7dd6d404.Emscripten.clang"
  },
  "schemaVersion": "3.4.16",
  "updatedAt": "2024-07-04T07:21:03.464Z",
  "networkType": "ethereum",
  "devdoc": {
    "kind": "dev",
    "methods": {},
    "version": 1
  },
  "userdoc": {
    "kind": "user",
    "methods": {},
    "version": 1
  }
}