{
  "contractName": "UserLogin",
  "abi": [
    {
      "inputs": [
        {
          "internalType": "string",
          "name": "_username",
          "type": "string"
        },
        {
          "internalType": "string",
          "name": "_password",
          "type": "string"
        }
      ],
      "name": "register",
      "outputs": [],
      "stateMutability": "nonpayable",
      "type": "function"
    },
    {
      "inputs": [
        {
          "internalType": "string",
          "name": "_username",
          "type": "string"
        },
        {
          "internalType": "string",
          "name": "_password",
          "type": "string"
        }
      ],
      "name": "login",
      "outputs": [
        {
          "internalType": "bool",
          "name": "",
          "type": "bool"
        }
      ],
      "stateMutability": "view",
      "type": "function",
      "constant": true
    }
  ],
  "bytecode": "0x608060405234801561001057600080fd5b506108e4806100206000396000f3fe608060405234801561001057600080fd5b50600436106100365760003560e01c80633ffbd47f1461003b57806358467dbc14610057575b600080fd5b61005560048036038101906100509190610490565b610087565b005b610071600480360381019061006c9190610490565b61010d565b60405161007e9190610523565b60405180910390f35b6040518060400160405280838152602001828152506000803373ffffffffffffffffffffffffffffffffffffffff1673ffffffffffffffffffffffffffffffffffffffff16815260200190815260200160002060008201518160000190816100ef919061075f565b506020820151816001019081610105919061075f565b509050505050565b6000806000803373ffffffffffffffffffffffffffffffffffffffff1673ffffffffffffffffffffffffffffffffffffffff16815260200190815260200160002060405180604001604052908160008201805461016990610578565b80601f016020809104026020016040519081016040528092919081815260200182805461019590610578565b80156101e25780601f106101b7576101008083540402835291602001916101e2565b820191906000526020600020905b8154815290600101906020018083116101c557829003601f168201915b505050505081526020016001820180546101fb90610578565b80601f016020809104026020016040519081016040528092919081815260200182805461022790610578565b80156102745780601f1061024957610100808354040283529160200191610274565b820191906000526020600020905b81548152906001019060200180831161025757829003601f168201915b5050505050815250509050836040516020016102909190610897565b6040516020818303038152906040528051906020012081600001516040516020016102bb9190610897565b6040516020818303038152906040528051906020012014801561032d5750826040516020016102ea9190610897565b6040516020818303038152906040528051906020012081602001516040516020016103159190610897565b60405160208183030381529060405280519060200120145b91505092915050565b6000604051905090565b600080fd5b600080fd5b600080fd5b600080fd5b6000601f19601f8301169050919050565b7f4e487b7100000000000000000000000000000000000000000000000000000000600052604160045260246000fd5b61039d82610354565b810181811067ffffffffffffffff821117156103bc576103bb610365565b5b80604052505050565b60006103cf610336565b90506103db8282610394565b919050565b600067ffffffffffffffff8211156103fb576103fa610365565b5b61040482610354565b9050602081019050919050565b82818337600083830152505050565b600061043361042e846103e0565b6103c5565b90508281526020810184848401111561044f5761044e61034f565b5b61045a848285610411565b509392505050565b600082601f8301126104775761047661034a565b5b8135610487848260208601610420565b91505092915050565b600080604083850312156104a7576104a6610340565b5b600083013567ffffffffffffffff8111156104c5576104c4610345565b5b6104d185828601610462565b925050602083013567ffffffffffffffff8111156104f2576104f1610345565b5b6104fe85828601610462565b9150509250929050565b60008115159050919050565b61051d81610508565b82525050565b60006020820190506105386000830184610514565b92915050565b600081519050919050565b7f4e487b7100000000000000000000000000000000000000000000000000000000600052602260045260246000fd5b6000600282049050600182168061059057607f821691505b6020821081036105a3576105a2610549565b5b50919050565b60008190508160005260206000209050919050565b60006020601f8301049050919050565b600082821b905092915050565b60006008830261060b7fffffffffffffffffffffffffffffffffffffffffffffffffffffffffffffffff826105ce565b61061586836105ce565b95508019841693508086168417925050509392505050565b6000819050919050565b6000819050919050565b600061065c6106576106528461062d565b610637565b61062d565b9050919050565b6000819050919050565b61067683610641565b61068a61068282610663565b8484546105db565b825550505050565b600090565b61069f610692565b6106aa81848461066d565b505050565b5b818110156106ce576106c3600082610697565b6001810190506106b0565b5050565b601f821115610713576106e4816105a9565b6106ed846105be565b810160208510156106fc578190505b610710610708856105be565b8301826106af565b50505b505050565b600082821c905092915050565b600061073660001984600802610718565b1980831691505092915050565b600061074f8383610725565b9150826002028217905092915050565b6107688261053e565b67ffffffffffffffff81111561078157610780610365565b5b61078b8254610578565b6107968282856106d2565b600060209050601f8311600181146107c957600084156107b7578287015190505b6107c18582610743565b865550610829565b601f1984166107d7866105a9565b60005b828110156107ff578489015182556001820191506020850194506020810190506107da565b8683101561081c5784890151610818601f891682610725565b8355505b6001600288020188555050505b505050505050565b600081905092915050565b60005b8381101561085a57808201518184015260208101905061083f565b60008484015250505050565b60006108718261053e565b61087b8185610831565b935061088b81856020860161083c565b80840191505092915050565b60006108a38284610866565b91508190509291505056fea26469706673582212206bb3959de7c3f04135a6c4d20e8095ebe69d69b5992990c8994e20778ced83e064736f6c63430008130033",
  "immutableReferences": {},
  "source": "// SPDX-License-Identifier: MIT\npragma solidity 0.8.19;\n\ncontract UserLogin {\n  struct User {\n    string username;\n    string password;\n  }\n\n  mapping(address => User) private users;\n\n  function register(string memory _username, string memory _password) public {\n    users[msg.sender] = User(_username, _password);\n  }\n\n  function login(\n    string memory _username,\n    string memory _password\n  ) public view returns (bool) {\n    User memory user = users[msg.sender];\n    return (keccak256(abi.encodePacked(user.username)) ==\n      keccak256(abi.encodePacked(_username)) &&\n      keccak256(abi.encodePacked(user.password)) ==\n      keccak256(abi.encodePacked(_password)));\n  }\n}\n",
  "sourcePath": "/Users/michaelqiu/Documents/workspace/decentralizedtradedesk/truffle/contracts/UserLogin.sol",
  "compiler": {
    "name": "solc",
    "version": "0.8.19+commit.7dd6d404.Emscripten.clang"
  },
  "schemaVersion": "3.4.16",
  "updatedAt": "2024-07-03T13:06:04.656Z",
  "networkType": "ethereum",
  "devdoc": {
    "kind": "dev",
    "methods": {},
    "version": 1
  },
  "userdoc": {
    "kind": "user",
    "methods": {},
    "version": 1
  }
}